:100000000C94CC010C94380C0C940D0C0C94E20B59
:100010000C94B70B0C948C0B0C94610B0C94360B5A
:100020000C940B0B0C94FD010C94FD010C94FD0140
:100030000C94FD010C94FD010C94FD010C94FD0148
:100040000C94FD010C94FD010C94FD010C94FD0138
:100050000C94FD010C94FD010C94FD010C94C10A5B
:100060000C94FD010C948D0C0C94630C0C94FD010C
:100070000C94FD010C94FD010C94FD010C94FD0108
:100080000C94FD010C94FD010C94FD010C94FD01F8
:100090000C94FD010C94FD010C94FD010C949D0940
:1000A0000C94FD010C94FD010C94FD010C94FD01D8
:1000B0000C94FD010C94FD010C94FD010C94FD01C8
:1000C0000C94FD010C94FD010C94FD010C94FD01B8
:1000D0000C94FD010C94FD010C94FD010C94FD01A8
:1000E0000C94FD010C94CC020C9403030C94D004EA
:1000F0000C944B020C9407030C94DE020C945506EE
:100100000C94CD060C94FF020C942B040C947F02EB
:100110000C9452020C9427020C943A040C94EB02B7
:100120000C9428020C940C030C9411030C94D6022A
:100130000C9498040C94C30C0C94E1020C94DA0215
:100140000C9426020C941D050C9438020C94760431
:100150000C9467040C94D2020C94F5020C942902BE
:100160000C9416040C942A040C94F9020C948A043E
:100170000C940D030C94F1020C94E70200407A10E9
:10018000F35A00A0724E18090010A5D4E80000E848
:100190007648170000E40B54020000CA9A3B0000A6
:1001A00000E1F505000080969800000040420F0035
:1001B0000000A08601000000102700000000E803F6
:1001C000000000006400000000000A0000000000C1
:1001D0000100000000002C76D888DC674F0823DF80
:1001E000C1DFAE59E1B1B796E5E3E453C63AE65153
:1001F000997696E8E6C28426EB898C9B62ED407C7A
:100200006FFCEFBC9C9F40F2BAA56FA5F490055A15
:100210002AF75C936B6CF9676DC11BFCE0E40D473A
:10022000FEF520E6B500D0ED902E0300943577055D
:100230000080841E080000204E0A000000C80C3315
:100240003333330F986E12831141EF8D2114893BA4
:10025000E65516CFFEE6DB18D1844B381BF77C1D24
:10026000901DA4BBE424203284725E228100C9F177
:1002700024ECA1E53D2700002000230026002900F2
:100280002C002F00320000010000030106010901CB
:1002900000002100240027002A002D003000330038
:1002A00001010000040107010A01000022002500ED
:1002B00028002B002E00310034000201000005014F
:1002C00008010B01050505050705080808080202D5
:1002D00002020A0A080804040404010101010101E0
:1002E00001010303030303030303040707070C0CC3
:1002F0000C0C0C0C0C0C020202020606060606068A
:1003000006060B0B0B0B0B0B0B0B0102102020082E
:100310000810204010204080020102010804020160
:1003200001020408102040808040201008040201CF
:100330008004020180402010080402010804020128
:1003400001020408102040800102040810204080AF
:1003500000000A0B02090C0D0E080703040100003F
:10036000000000000000000000000000000000008D
:10037000000000000000000000000000121110004A
:10038000000000000000000000000000000000006D
:10039000000000000000C30C11241FBECFEFD1E20B
:1003A000DEBFCDBF00E00CBF24E0A0E0B3E001C0A1
:1003B0001D92AE38B207E1F713E0A0E0B2E0E0E949
:1003C000FFE200E00BBF02C007900D92A030B10722
:1003D000D9F711E0CCECD1E000E006C0219701098B
:1003E000802FFE010E948914CB3CD10780E00807D2
:1003F000A9F70E940C0D0C94C6170C9400002091D4
:100400008803260F3327331F21323105ECF4209166
:10041000AE03FC0190E080E0243069F082E00895B2
:10042000A09188032191AC014A595C4FA40FB52FCC
:10043000B11D2C930196861798F380918803680F5D
:100440006093880380E0089581E0089508950895F9
:100450000895E0915D0380915C03E81730F4F0E0CB
:10046000E45CFC4F808190E008958FEF9FEF08954A
:1004700090915D0380915C032FEF3FEF981748F454
:10048000E92FF0E0E45CFC4F208130E09F5F909327
:100490005D03C901089580915C0390915D03891B00
:1004A000990B0895CF92DF92EF92FF920F931F93D3
:1004B000CF93DF937C01CB018A0120913B03222360
:1004C00089F0EB016B01C40ED51ECC15DD0569F07A
:1004D0006991D701ED91FC910190F081E02DC70168
:1004E0001995F3CF642F0E94FF01C801DF91CF91CE
:1004F0001F910F91FF90EF90DF90CF900895CF93D1
:10050000DF931F92CDB7DEB7698320913B0322238F
:10051000F9F020915E03203258F021E030E0FC0138
:100520003383228390E080E00F90DF91CF91089594
:1005300080915F03E82FF0E0E55EFC4F99819083A6
:100540008F5F80935F0380935E0381E090E0ECCF48
:1005500061E0CE0101960E94FF01F7CF8150823108
:1005600008F05AC0E82FF0E08827E654FD4F8F4F7F
:100570000C948914DA02DE02CC02D202D6020C03F9
:10058000E102E702EB02F102F502F902FF020303C6
:100590000C0307030D031103809180008F77809374
:1005A00080000895809180008F7DF9CF8091800038
:1005B000877FF5CF84B58F7784BD089584B58F7D0F
:1005C000FBCF8091B0008F778093B0000895809129
:1005D000B0008F7DF9CF809190008F77809390004D
:1005E0000895809190008F7DF9CF80919000877F52
:1005F000F5CF8091A0008F778093A000089580911F
:10060000A0008F7DF9CF8091A000877FF5CF8091EA
:1006100020018F77809320010895809120018F7DA4
:10062000F9CF80912001877FF5CF1F93CF93DF9380
:10063000282F30E0F901E05BFC4F8491F901E65F7F
:10064000FC4FD491F901EC53FD4FC491CC23A9F098
:10065000162F81110E94AE02EC2FF0E0EE0FFF1F6B
:10066000E655FD4FA591B4918FB7F894EC91111117
:1006700008C0D095DE23DC938FBFDF91CF911F910F
:100680000895DE2BF8CF1092AE0381E08093B00383
:100690001092AF0361E084E10E94150361E085E1FF
:1006A0000E941503E9EBF0E080818E7F80838081DA
:1006B0008D7F808388E48093B80085E48093BC00BC
:1006C0000895CF93DF9391E0909365038823B9F069
:1006D000C091B800D091BA008091BC008A7B809311
:1006E000BC0060E084E10E94150360E085E10E94A7
:1006F00015030E944303D093BA00C093B800DF9162
:10070000CF910895CF93DF9390E0FC01E65FFC4F1B
:1007100024918C539D4FFC0184918823D1F090E06B
:10072000880F991FFC01E057FD4FA591B491FC0182
:10073000E655FD4FC591D491623071F49FB7F8949E
:100740003C91822F809583238C93E8812E2B2883E4
:100750009FBFDF91CF9108958FB7F894EC912E2B26
:100760002C938FBFF6CF3FB7F894809117039091E9
:100770001803A0911903B0911A0326B5A89B05C0D0
:100780002F3F19F00196A11DB11D3FBFBA2FA92F10
:10079000982F8827BC01CD01620F711D811D911D0D
:1007A00042E0660F771F881F991F4A95D1F7089579
:1007B0008F929F92AF92BF92CF92DF92EF92FF9271
:1007C0004B015C010E94B3036B017C010E94B303E7
:1007D0006C197D098E099F09683E7340810591055A
:1007E000A8F321E0821A9108A108B10888EEC80E8A
:1007F00083E0D81EE11CF11C81149104A104B10412
:1008000029F7FF90EF90DF90CF90BF90AF909F902F
:100810008F9008952FB7F89460911303709114038B
:1008200080911503909116032FBF089580910503C1
:1008300090910603A0910703B09108030196A11DB2
:10084000B11D8093050390930603A0930703B09313
:100850000803089508950895DB0114964D915C9165
:1008600015976D917C91DC01ED91FC910280F381F3
:10087000E02D1994AF92BF92CF92DF92EF92FF9248
:100880000F931F93CF93DF936C017B018B01040FB8
:10089000151FEB015E01AE18BF08C017D10759F054
:1008A0006991D601ED91FC910190F081E02DC60196
:1008B0001995892B79F7C501DF91CF911F910F9180
:1008C000FF90EF90DF90CF90BF90AF900895FC0124
:1008D000538D448D252F30E0842F90E0821B930BA5
:1008E000541710F0CF96089501970895FC01918D4B
:1008F000828D981761F0A28DAE0FBF2FB11D5D964E
:100900008C91928D9F5F9F73928F90E008958FEFEF
:100910009FEF0895FC01918D828D981731F0828DA3
:10092000E80FF11D858D90E008958FEF9FEF0895FA
:10093000FC01918D228D892F90E0805C9F4F821B5E
:1009400091098F739927089580EE93E00E9498048F
:1009500021E0892B09F420E0822F0895FC01A48D69
:10096000A80FB92FB11DA35ABF4F2C91848D90E0D1
:1009700001968F739927848FA689B7892C93A089B4
:10098000B1898C91837080648C93938D848D98133E
:1009900006C00288F389E02D80818F7D80830895D1
:1009A000EF92FF920F931F93CF93DF93EC0181E0BF
:1009B000888F9B8D8C8D98131AC0E889F989808166
:1009C00085FF15C09FB7F894EE89FF896083E88999
:1009D000F98980818370806480839FBF81E090E08B
:1009E000DF91CF911F910F91FF90EF900895F62E18
:1009F0000B8D10E00F5F1F4F0F731127E02E8C8DB2
:100A00008E110CC00FB607FCFACFE889F9898081F6
:100A100085FFF5CFCE010E94AE04F1CFEB8DEC0F38
:100A2000FD2FF11DE35AFF4FF0829FB7F8940B8F13
:100A3000EA89FB8980818062CFCFCF93DF93EC017D
:100A4000888D8823B9F0AA89BB89E889F9898C91B6
:100A500085FD03C0808186FD0DC00FB607FCF7CF72
:100A60008C9185FFF2CF808185FFEDCFCE010E9472
:100A7000AE04E9CFDF91CF91089580E090E0892B1B
:100A800029F00E94A40481110E94000080E090E0FF
:100A9000892B49F080E090E0892B29F00E9400002A
:100AA00081110E94000080E090E0892B49F080E0F5
:100AB00090E0892B29F00E94000081110E94000023
:100AC00080E090E0892B49F080E090E0892B29F0CC
:100AD0000E94000081110C9400000895CF92DF92D3
:100AE000EF92FF920F931F93CF93DF93FC01C4818A
:100AF00021E020933B03C093000310925F03109208
:100B00005E038485682B84ED93E00E947F02D09180
:100B10005E03D13208F092C00E94B3036B017C01E6
:100B20008091AE03811165C082E08093AE0381E0C5
:100B30008093B0038FEF8093AD031092D203D093D4
:100B4000D103ABE1B3E0E1EBF3E080E0D81385C083
:100B50001092D3038091D303CC0FC82BC093D3033F
:100B60008091AF03813009F07CC01092AF030E94E6
:100B7000B3036B017C018091D3038093BB00809110
:100B8000610390916203A0916303B0916403892B88
:100B90008A2B8B2B99F00E94B30300916103109173
:100BA000620320916303309164036C197D098E09FF
:100BB0009F090617170728073907E0F18091BC0045
:100BC00083FDD9CF85EC8093BC000E94B3036B01F9
:100BD0007C018091AE03823009F445C08091AD0361
:100BE0008F3F61F18091AD03803241F18091AD037F
:100BF00025C08091610390916203A0916303B0913D
:100C00006403892B8A2B8B2B09F48ACF0E94B303B0
:100C1000009161031091620320916303309164039A
:100C20006C197D098E099F090617170728073907D0
:100C300008F076CF809160030E94610310925F03F9
:100C400010925E0310923B03DF91CF911F910F91A1
:100C5000FF90EF90DF90CF9008959D9191938F5FDB
:100C600075CF85EEB0CF8091610390916203A09122
:100C70006303B0916403892B8A2B8B2B09F4A9CFD2
:100C80000E94B303009161031091620320916303FA
:100C9000309164036C197D098E099F0906171707A7
:100CA0002807390708F095CFC5CF90E080E0089578
:100CB0000F931F93CF938C01C62F0E946E056C2F4C
:100CC0006460C8010E946E056C2F6B7FC8010E9492
:100CD0006E0583EC90E00197F1F7CF911F910F9192
:100CE00008950F931F93CF93DF938C01D62FC42FBA
:100CF000607F642B0E94580680E1D89FB0011124C8
:100D00006C2BC801DF91CF911F910F910C94580665
:100D1000CF93DF9300D000D01F921F92CDB7DEB7E4
:100D200098E0E7E1F2E0DE01119601900D929A95CC
:100D3000E1F790918504961710F46FEF690F262F55
:100D400030E0220F331F41E050E04C0F5D1F240FB5
:100D5000351FF9016081680F606840E08DE794E01D
:100D600028960FB6F894DEBF0FBECDBFDF91CF91AE
:100D70000C94710640E061E08DE794E00E947106FA
:100D80008BE39FE10197F1F780918604882321F09E
:100D900060E080E00C948806089541E00E947106AE
:100DA00081E090E0089585ED8093BC00809161031F
:100DB00090916203A0916303B09164030796A11D13
:100DC000B11D23E0B695A795979587952A95D1F7FC
:100DD0002091BC0024FD03C01092AE030895409101
:100DE0006103509162036091630370916403452B2A
:100DF000462B472B69F30097A105B10541F02AE284
:100E00002A95F1F700C00197A109B109E1CF8091BE
:100E100060030C946103FB0101900020E9F7319716
:100E2000AF01461B570BDC01ED91FC910280F38171
:100E3000E02D19948F929F92AF92BF920F931F93C0
:100E4000CF93DF93CDB7DEB7A1970FB6F894DEBF8F
:100E50000FBECDBF19A2423008F44AE08E010F5DEB
:100E60001F4F842E912CB12CA12CA50194010E941E
:100E70006714E62FB901CA01EA3004F5E05DD80134
:100E8000EE938D01232B242B252B79F790E080E026
:100E9000109729F0BD0180EE93E00E940B07A19608
:100EA0000FB6F894DEBF0FBECDBFDF91CF911F917B
:100EB0000F91BF90AF909F908F900895E95CDFCF26
:100EC0004F925F926F927F928F929F92AF92BF925A
:100ED000CF92DF92EF92FF926B017C01AC019B01FC
:100EE0000E94AB156FE472E0811126C046015701E4
:100EF000E894B7F82FEF3FEF4FE75FE7C501B40184
:100F00000E94AB1581110CC02FEF3FEF4FE75FE759
:100F1000C501B4010E94431363E572E0181664F042
:100F20002FEF3FEF4FE75FE4C701B6010E94A61520
:100F3000181694F467E572E080EE93E0FF90EF906E
:100F4000DF90CF90BF90AF909F908F907F906F90E9
:100F50005F904F900C940B072FEF3FEF4FE75FEC44
:100F6000C701B6010E94431387FDE4CF20E030E0C3
:100F7000A901C701B6010E944313B12CA12C87FF20
:100F80000AC06DE280EE93E00E94D0045C01F7FAA3
:100F9000F094F7F8F0942AE037ED43EA5BE3C701F9
:100FA000B6010E9492142B013C010E9477156B013F
:100FB0007C010E9448139B01AC01C301B2010E9455
:100FC00091142B013C014AE0C701B6010E941A07A7
:100FD0007C01EA0CFB1C6EE280EE93E00E94D004E0
:100FE000E80EF91E20E030E040E251E4C301B20116
:100FF0000E94A9132B013C010E9477154B01B12CD3
:10100000A12C4AE0C501B4010E941A07E80EF91E9E
:10101000C501B4010E9448139B01AC01C301B20198
:101020000E94911420E030E040E251E40E94A913B4
:101030000E94771590E080E04AE00E941A078E0D2A
:101040009F1DFF90EF90DF90CF90BF90AF909F904B
:101050008F907F906F905F904F9008950C940B0746
:101060000F931F93CF93DF93EC01888199810097B1
:1010700059F02A813B812617370730F081E0DF9154
:10108000CF911F910F9108958B016F5F7F4F0E9449
:10109000D516009759F0998388831B830A832C8186
:1010A0003D81232B59F7FC011082E8CF80E0E7CF88
:1010B000EF92FF920F931F93CF93DF93611571050A
:1010C00041F480E0DF91CF911F910F91FF90EF905D
:1010D000089541155105B1F07B01EC010C811D8192
:1010E000040F151FB8010E943008882351F328818E
:1010F00039818C819D81B701820F931F0E94BF1798
:101100001D830C8381E0DECFCF93DF93EC018881D8
:101110009981009711F00E944C16198218821D8245
:101120001C821B821A82DF91CF910895CF93DF93A7
:10113000EC01FB0144815581608171810E94580856
:10114000811103C0CE010E948408CE01DF91CF91AE
:101150000895EF92FF920F931F93CF93DF93EC01CB
:101160007B018A01BA010E94300881110BC0CE01B7
:101170000E948408CE01DF91CF911F910F91FF90C3
:10118000EF9008951D830C83B701888199810E9497
:10119000BF17F0CFFB0101900020E9F73197AF01B5
:1011A000461B570B0C94A908FB01DC0111961C92FD
:1011B0001E9213961C921E92129715961C921E92C6
:1011C00014978617970749F0608171816115710541
:1011D00021F0448155810C94A9080895FC011182E5
:1011E00010821382128215821482FB01019000206A
:1011F000E9F73197AF01461B570B0C94A908FC0186
:1012000080819181009711F00C944C160895CF9233
:10121000DF92EF92FF920F931F93CF93DF9300D053
:1012200000D0CDB7DEB7D82E8B01F801848195812F
:101230008431910540F441E050E06CEA72E0C8016D
:101240000E945808F2CF449709F448C069ED72E053
:10125000CE0101960E94EE08F801E480F580E114C9
:10126000F104F1F0F4E1EF16F10418F084E1E82E56
:10127000F12CF80160817181FB01EE0DFF1DC08032
:101280001082CE0101966115710509F43FC00E94DC
:10129000CA08F80180819181E80EF91EF701C08229
:1012A000F801808191810097B1F169817A8161159E
:1012B000710579F1428153812D813E814217530797
:1012C00040F10E94BF178D819E81F8019583848330
:1012D0001E821D82CE0101960E94FF086D2D80E0C6
:1012E0000E948806B8018DE794E00E942C0426969F
:1012F0000FB6F894DEBF0FBECDBFDF91CF911F9127
:101300000F91FF90EF90DF90CF9008950E94840896
:10131000C0CF0E944C1689819A81F8019183808305
:101320008B819C81938382838D819E81958384832D
:101330001A8219821C821B82CBCF1F920F920FB68A
:101340000F9211240BB60F922F933F934F935F93FD
:101350006F937F938F939F93AF93BF93EF93FF937D
:101360008091B900887F803609F44DC008F040C0F4
:10137000883209F4A9C028F5803109F49DC0C8F469
:10138000882309F4FBC0883009F496C0FF91EF91DF
:10139000BF91AF919F918F917F916F915F914F918D
:1013A0003F912F910F900BBE0F900FBE0F901F908B
:1013B0001895883109F488C0803241F78093AD03D5
:1013C00014C0803409F49DC040F48033B9F38833ED
:1013D000E9F68093AD0385ECB0C0803509F485C093
:1013E000883509F496C0883489F60E94D306CECF9A
:1013F000883909F48CC038F5883729F050F48836DC
:1014000011F0803719F683E08093AE031092AC039D
:1014100057C0883809F47BC0803919F0803809F04A
:10142000B5CF8091AC03803208F071C0E091AC037D
:1014300081E08E0F8093AC038091BB00F0E0E45715
:10144000FC4F80833DC0803B39F0E0F4803A09F4E2
:1014500079C0883A09F09ACF84E08093AE03109265
:10146000890310928803E0918603F0918703199510
:101470008091880381110FC081E0809388031092CE
:10148000660309C0803C09F4A6CF883C09F4A3CFC9
:10149000883B09F07BCFE091890381E08E0F809338
:1014A0008903F0E0EA59FC4F80818093BB00909162
:1014B00089038091880329C08091D3038093BB0066
:1014C00085EC8093BC0062CF9091D2038091D103D0
:1014D000981758F5E091D20381E08E0F8093D203E4
:1014E000F0E0EF54FC4F8081E9CFE091D20381E03E
:1014F0008E0F8093D2038091BB00F0E0EF54FC4F3D
:1015000080839091D2038091D1039817C8F285E827
:10151000D8CFE091D20381E08E0F8093D2038091E7
:10152000BB00F0E0EF54FC4F80838091B003811149
:101530005CCF81E08093AF0384EA8093BC0010927B
:10154000AE0324CF85EC8093BC001092AE03809153
:10155000AC03803230F4E091AC03F0E0E457FC4F90
:1015600010826091AC0370E0E0918A03F0918B03EC
:101570008CE893E019951092AC0308CF1092AD035C
:1015800034CF1F920F920FB60F9211242F933F93D7
:101590008F939F93AF93BF93809113039091140304
:1015A000A0911503B09116033091120323E0230F8D
:1015B0002D3758F50196A11DB11D2093120380937C
:1015C000130390931403A0931503B0931603809113
:1015D000170390911803A0911903B0911A03019673
:1015E000A11DB11D8093170390931803A0931903B5
:1015F000B0931A03BF91AF919F918F913F912F911B
:101600000F900FBE0F901F90189526E8230F02969B
:10161000A11DB11DD2CF1F920F920FB60F921124B0
:101620000BB60F922F933F934F935F936F937F93DC
:101630008F939F93AF93BF93EF93FF93E0910E022D
:10164000F0910F021995FF91EF91BF91AF919F918A
:101650008F917F916F915F914F913F912F910F905B
:101660000BBE0F900FBE0F901F9018951F920F92F8
:101670000FB60F9211240BB60F922F933F934F93F7
:101680005F936F937F938F939F93AF93BF93EF93EA
:10169000FF93E0910C02F0910D021995FF91EF91EB
:1016A000BF91AF919F918F917F916F915F914F917A
:1016B0003F912F910F900BBE0F900FBE0F901F9078
:1016C00018951F920F920FB60F9211240BB60F921E
:1016D0002F933F934F935F936F937F938F939F933A
:1016E000AF93BF93EF93FF93E0910202F091030257
:1016F0001995FF91EF91BF91AF919F918F917F913C
:101700006F915F914F913F912F910F900BBE0F9072
:101710000FBE0F901F9018951F920F920FB60F9249
:1017200011240BB60F922F933F934F935F936F93B8
:101730007F938F939F93AF93BF93EF93FF93E0912A
:101740000002F09101021995FF91EF91BF91AF91C5
:101750009F918F917F916F915F914F913F912F91C9
:101760000F900BBE0F900FBE0F901F9018951F92F9
:101770000F920FB60F9211240BB60F922F933F9337
:101780004F935F936F937F938F939F93AF93BF9389
:10179000EF93FF93E0910A02F0910B021995FF91EC
:1017A000EF91BF91AF919F918F917F916F915F91D9
:1017B0004F913F912F910F900BBE0F900FBE0F9046
:1017C0001F9018951F920F920FB60F9211240BB60F
:1017D0000F922F933F934F935F936F937F938F93CA
:1017E0009F93AF93BF93EF93FF93E0910802F09123
:1017F00009021995FF91EF91BF91AF919F918F9140
:101800007F916F915F914F913F912F910F900BBE00
:101810000F900FBE0F901F9018951F920F920FB64A
:101820000F9211240BB60F922F933F934F935F9318
:101830006F937F938F939F93AF93BF93EF93FF9398
:10184000E0910602F09107021995FF91EF91BF9187
:10185000AF919F918F917F916F915F914F913F9148
:101860002F910F900BBE0F900FBE0F901F901895E9
:101870001F920F920FB60F9211240BB60F922F9357
:101880003F934F935F936F937F938F939F93AF9308
:10189000BF93EF93FF93E0910402F0910502199535
:1018A000FF91EF91BF91AF919F918F917F916F9138
:1018B0005F914F913F912F910F900BBE0F900FBEF4
:1018C0000F901F9018951F920F920FB60F92112430
:1018D0000BB60F922F933F934F935F936F937F932A
:1018E0008F939F93AF93BF93EF93FF9380EE93E01B
:1018F0000E94AE04FF91EF91BF91AF919F918F91A4
:101900007F916F915F914F913F912F910F900BBEFF
:101910000F900FBE0F901F9018951F920F920FB649
:101920000F9211240BB60F922F938F939F93EF93E7
:10193000FF93E091F003F091F1038081E091F603D1
:10194000F091F70382FD1DC090818091F9038F5FB4
:101950008F732091FA03821741F0E091F903F0E0D0
:10196000E052FC4F958F8093F903FF91EF919F9187
:101970008F912F910F900BBE0F900FBE0F901F9065
:1019800018958081F2CFE4EDF3E01382128288EEA5
:1019900093E0A0E0B0E084839583A683B78323E23D
:1019A00032E031832083E0EEF3E0138212828483FD
:1019B0009583A683B78385E392E09183808385EC4A
:1019C00090E09587848784EC90E09787868780EC09
:1019D00090E0918B808B81EC90E0938B828B82ECFA
:1019E00090E0958B848B86EC90E0978B868B118EA4
:1019F000128E138E148EEDE7F4E01382128287E4C8
:101A000092E091838083118687E2848384E18287D8
:101A100084E0838714860895CF93DF93CDB7DEB734
:101A2000C554D1090FB6F894DEBF0FBECDBF789470
:101A300084B5826084BD84B5816084BD85B58260D3
:101A400085BD85B5816085BD80916E008160809384
:101A50006E001092810080918100826080938100ED
:101A600080918100816080938100809180008160FD
:101A7000809380008091B10084608093B100809158
:101A8000B00081608093B00080919100826080936B
:101A900091008091910081608093910080919000ED
:101AA0008160809390008091A10082608093A1006A
:101AB0008091A10081608093A1008091A00081604D
:101AC0008093A00080912101826080932101809108
:101AD00021018160809321018091200181608093A8
:101AE000200180917A00846080937A0080917A004E
:101AF000826080937A0080917A00816080937A007E
:101B000080917A00806880937A001092C100E09101
:101B1000F003F091F10382E08083E091EC03F09117
:101B2000ED031082E091EE03F091EF038FEC8083E0
:101B30001092F803E091F403F091F50386E08083BE
:101B4000E091F203F091F303808180618083E09162
:101B5000F203F091F303808188608083E091F203C7
:101B6000F091F303808180688083E091F203F0912B
:101B7000F30380818F7D808310925D0310925C035C
:101B800010925F0310925E030E94430386E292E08C
:101B9000909387038093860387E292E090938B0370
:101BA00080938A031092820480918804823018F016
:101BB00098E0909382048093850462E370E080E073
:101BC00090E00E94D803609189048DE794E00E9420
:101BD0006E0568EE73E080E090E00E94D80360E359
:101BE0008DE794E00E9458060BE416E4C8010197C3
:101BF000F1F760E38DE794E00E945806C801019771
:101C0000F1F760E38DE794E00E94580683E592E0E7
:101C10000197F1F760E28DE794E00E945806609129
:101C20008204606240E08DE794E00E94710684E0E7
:101C30008093830440E06CE08DE794E00E9471069D
:101C40000E94BA0682E08093840440E066E08DE75B
:101C500094E00E94710640E062E08DE794E00E940B
:101C600071068BE39FE10197F1F788E08093890487
:101C700060E08DE794E00E946E0560E082E00E94E3
:101C800088066DE672E08DE794E00E942E086CED08
:101C900075E080E090E00E94D8030E94BA0662E0FE
:101CA00082E00E94820362E084E00E94820361E09D
:101CB00083E00E94820360E083E00E94150386E1D6
:101CC00094E0909301028093000280916A00836007
:101CD00080936A00EC9A0E940A046093090370934F
:101CE0000A0380930B0390930C0394E5E92E93E091
:101CF000F92E2EE0C22E23E0D22E33243394F701A6
:101D00008491F6011491E8ECF2E00491011101C212
:101D100080911002882329F10E940A0400910E0389
:101D200010910F032091100330911103601B710B70
:101D3000820B930B633371058105910590F06091DF
:101D40000D03632560930D0383E00E9415030E9439
:101D50000A0460930E0370930F0380931003909313
:101D6000110380E0809310020E940A04009109038D
:101D700010910A0320910B0330910C03601B710B2F
:101D8000820B930B683E73408105910508F4BEC138
:101D9000F8944090050350900603609007037090FC
:101DA0000803109205031092060310920703109285
:101DB000080378940E940A046093090370930A034D
:101DC00080930B0390930C03C301B2010E9448134C
:101DD0002B013C0120E030E041EE53E40E94FE1470
:101DE00020E030E040E752E40E94A9134B015C017F
:101DF0008092010390920203A0920303B092040325
:101E000069ED72E0CE01805C9F4F0E94EE082DECE0
:101E10003CEC4CEC5DE3C501B4010E94431368E760
:101E200072E087FD1AC020E030E040EA50E4C501CE
:101E3000B4010E94431362E872E087FD0EC020E007
:101E400030E040E451E4C501B4010E94431368E866
:101E500072E087FD02C06EE872E0CE01805C9F4FA9
:101E60000E94CA081DAA1CAA1FAA1EAA19AE18AE53
:101E70008E010F5F1F4F21E043E0C501B4010E94B6
:101E80009F10009709F456C1BC01CE01C4960E9470
:101E9000CA0865E972E0CE01CA960E94EE08BE014A
:101EA0006C5C7F4FCE01CA960E9496088C0146E07A
:101EB00050E06EE972E00E945808811103C0C80129
:101EC0000E948408B801CE0101960E94D408BE0188
:101ED0006F5F7F4F80E00E940709CE0101960E944C
:101EE000FF08CE01CA960E94FF08CE01C4960E9448
:101EF000FF0862EC72E0CE01C4960E94EE08BE01BB
:101F0000605C7F4FCE01C4960E949608BC01CE0152
:101F100001960E94D408BE016F5F7F4F81E00E944E
:101F20000709CE0101960E94FF08CE01C4960E94C7
:101F3000FF0880910D036EE572E0882311F06BE5D8
:101F400072E0CE01C4960E94EE0865EA72E0CE010E
:101F5000CA960E94EE08BE016C5C7F4FCE01CA9605
:101F60000E949608BC01CE0101960E94D408BE01D1
:101F70006F5F7F4F82E00E940709CE0101960E94A9
:101F8000FF08CE01CA960E94FF08CE01C4960E94A7
:101F9000FF081DAA1CAA1FAA1EAA19AE18AE20E08F
:101FA00030E04AE754E4C301B2010E94A91320E0E3
:101FB00030E04AE754E40E94FE140E947015CB0101
:101FC0004AE0BE016F5F7F4F0E94BD10BE016F5F90
:101FD0007F4FCE01C4960E94CA086EEA72E0CE011D
:101FE000CA960E94EE08BE016C5C7F4FCE01CA9675
:101FF0000E949608BC01CE0101960E94D408BE0141
:102000006F5F7F4F83E00E940709CE0101960E9417
:10201000FF08CE01CA960E94FF08CE01C4960E9416
:10202000FF0865E972E080EE93E00E942E0860915F
:1020300001037091020380910303909104030E94B5
:10204000600769EB72E080EE93E00E942E08BE010B
:10205000605C7F4F80EE93E00E942C046BEC72E09A
:1020600080EE93E00E942E0880910D036EE572E0F1
:10207000882311F06BE572E080EE93E00E940B077D
:1020800067ED72E080EE93E00E940B076AED72E06C
:1020900080EE93E00E942E0860910103709102038C
:1020A00080910303909104030E9460076AEE72E03E
:1020B00080EE93E00E942E08BE01605C7F4F80EEB0
:1020C00093E00E942C0466EF72E080EE93E00E94A1
:1020D0002E0880910D0362E672E0811102C067E66E
:1020E00072E080EE93E00E942E0865ED72E080EED3
:1020F00093E00E940B0767ED72E080EE93E00E9490
:102100000B07CE01805C9F4F0E94FF080E943D0597
:10211000F6CD81110E94AE02E02FF0E0EE0FFF1F1E
:10212000EA58FD4FA591B4918C91182309F4F0CD94
:1021300081E018CECE01C4960E948408AACEEF9208
:102140000F931F93CF93DF93E80134E047FD34E111
:10215000042E000C550B57FF03C0519541955109B2
:10216000E32E022F242FAE010E94E210CE01DF9158
:10217000CF911F910F91EF900895BB274A3031F412
:10218000992322F4BDE2909581959F4F0C94C9103C
:10219000BB27FB015527AA27880F991FAA1FA41741
:1021A00010F0A41B83955051B9F7A05DAA3308F035
:1021B000A95DA193009779F7B111B1931192CB0169
:1021C0000C9433138F929F92AF92BF92CF92DF9273
:1021D000EF92FF920F931F93CF93DF9300D000D025
:1021E00000D0CDB7DEB76A01F22EB02E102FFBE380
:1021F000AF2EA01608F41BE31F5F012F27E0AE01EE
:102200004F5F5F4F0E945B12BC018981982F9970CC
:10221000913009F44EC09BE2E1FC04C09E2D917008
:10222000E0FC49C05E2D5071E82FE87083FF55C077
:1022300084E0911101C083E0EF2DE81B8F1508F0B9
:10224000E0E0D6018E2F20E25523C9F1992329F031
:10225000D6019C93C60101966C0196012D5F3F4FFC
:10226000E2FE33C08EE4D6018C9391E411969C93E8
:10227000119712968C93D9018E2F90E281112AC06A
:10228000E20FF32FF11D10828EEF9FEF29960FB60C
:10229000F894DEBF0FBECDBFDF91CF911F910F919C
:1022A000FF90EF90DF90CF90BF90AF909F908F9076
:1022B00008959DE2B7CF90E2B5CF2D938150811163
:1022C000FCCFCE0ED11CE0E0C1CF8EE6D6018C93C0
:1022D00091E6CCCF9D938150D1CF482F447082FF9F
:1022E0003DC084E0911101C083E08F1510F4EF2D03
:1022F000E81BD6018E2F20E2552309F1992329F0FE
:10230000D6019C93C60101966C0196012D5F3F4F4B
:10231000E2FE1BC089E4D6018C938EE411968C9367
:10232000119786E412968C93D9018E2F90E2882320
:1023300009F4A6CF9D938150FACF2D93815081113E
:10234000FCCFCE0ED11CE0E0D9CF89E6D6018C932C
:102350008EE611968C93119786E6E4CF9B0177FF6A
:1023600002C030E020E0A1E0B0E0911102C0B0E096
:10237000A0E0F9013196AE0FBF1F8B2C912CBB2032
:1023800009F461C05401EFEFAE1ABE0AAA0DBB1DDD
:10239000FA161B0619F014F04F2D4A1B511188C074
:1023A000E3FC59C07601A42FB0E2A1114FC0C40EC6
:1023B000D11C992309F45BC040E0D6011196F601C7
:1023C00090836D01552309F448C0012F060F9A81AF
:1023D000582F507184FF03C0913309F40150101637
:1023E0000CF047C0093008F008E0EEE2FE2E5B0179
:1023F000A01AB10885019194819491082F3F32076A
:1024000029F4D601FC92F60131966F016217730729
:1024100094F1021713077CF5DB01A21BB30BAA246E
:10242000A394B12CAC0EBD1EAA0DBB1D11968C91B0
:1024300021503109D601119628153905F4F0F6011D
:1024400080836D01DBCFB12CA12CA0CFF701B1931C
:102450007F01A150AACF9111B0CFD601942F50E3A4
:1024600002C05D9391509111FCCFC40ED11C40E08D
:10247000ACCF01E0BACF80E3DBCF6217730731F452
:10248000963388F4953311F4552369F0F60180836F
:10249000FD01842F90E2811108C0A40FB11D1C9290
:1024A00090E080E0F3CE81E3F1CF91938150F3CFC0
:1024B000911183CF8ACF283008F027E03327DA0143
:1024C000990F311D87FD916000966105710539F402
:1024D00032602E5F3D9330E32A95E1F708959F3FE8
:1024E00030F080387105610509F03C5F3C5F3D9339
:1024F000913008F08068911DDF93CF931F930F9365
:10250000FF92EF92192F987F9695E92F96959695C1
:10251000E90FFF27EA52FE4F99273327EE24FF24C5
:10252000A701E70105900894079428F4360FE71EE9
:10253000F81E491F511D660F771F881F991F0694AB
:10254000A1F70590079428F4E70EF81E491F561FBF
:10255000C11D770F881F991F661F0694A1F705906C
:10256000079428F4F80E491F561FC71FD11D880F66
:10257000991F661F771F0694A1F70590079420F412
:10258000490F561FC71FD81F990F661F771F881F37
:102590000694A9F784911095177041F0D695C795C8
:1025A00057954795F794E7941A95C1F7ECE7F1E052
:1025B00068941590159135916591959105907FE2FC
:1025C0007395E118F10A430B560BC90BD009C0F7FC
:1025D000E10CF11E431F561FC91FD01D7EF470333E
:1025E00011F48A95E6CFE894015030F0080F0AF410
:1025F0000027021708F4202F2395022F7A3328F0A2
:1026000079E37D932A95E9F710C07D932A9589F6A1
:10261000069497956795379517951794E118F10AE1
:10262000430B560BC90BD00998F023957E917395F7
:102630007A3308F070E37C932013B8F77E917061D1
:102640007D9330F0839571E37D9370E32A95E1F7F4
:102650001124EF90FF900F911F91CF91DF91992757
:1026600087FD90950895DC01FC01672F7191772318
:10267000E1F7329704C07C916D9370836291AE173D
:10268000BF07C8F308950E94851308F481E00895F8
:10269000E89409C097FB3EF49095809570956195FC
:1026A0007F4F8F4F9F4F9923A9F0F92F96E9BB27B2
:1026B0009395F695879577956795B795F111F8CF2E
:1026C000FAF4BB0F11F460FF1BC06F5F7F4F8F4F99
:1026D0009F4F16C0882311F096E911C0772321F08F
:1026E0009EE8872F762F05C0662371F096E8862F27
:1026F00070E060E02AF09A95660F771F881FDAF77E
:10270000880F9695879597F90895990F0008550FAA
:10271000AA0BE0E8FEEF16161706E807F907C0F067
:1027200012161306E407F50798F0621B730B840B6F
:10273000950B39F40A2661F0232B242B252B21F449
:1027400008950A2609F4A140A6958FEF811D811DE9
:1027500008950E94BC130C942D140E941F1438F08D
:102760000E94261420F0952311F00C9416140C945A
:102770001C1411240C9461140E943E1470F3959F54
:10278000C1F3950F50E0551F629FF001729FBB2768
:10279000F00DB11D639FAA27F00DB11DAA1F649F04
:1027A0006627B00DA11D661F829F2227B00DA11DB7
:1027B000621F739FB00DA11D621F839FA00D611D3D
:1027C000221F749F3327A00D611D231F849F600D5E
:1027D000211D822F762F6A2F11249F5750409AF087
:1027E000F1F088234AF0EE0FFF1FBB1F661F771F13
:1027F000881F91505040A9F79E3F510580F00C94DE
:1028000016140C9461145F3FE4F3983ED4F386955C
:1028100077956795B795F795E7959F5FC1F7FE2B7D
:10282000880F911D9695879597F9089597F99F6759
:1028300080E870E060E008959FEF80EC0895002448
:102840000A941616170618060906089500240A9415
:1028500012161306140605060895092E0394000C9B
:1028600011F4882352F0BB0F40F4BF2B11F460FF2A
:1028700004C06F5F7F4F8F4F9F4F089557FD905853
:10288000440F551F59F05F3F71F04795880F97FB34
:10289000991F61F09F3F79F08795089512161306EE
:1028A0001406551FF2CF4695F1DF08C0161617061D
:1028B0001806991FF1CF8695710561050894089552
:1028C000E894BB2766277727CB0197F90895A1E203
:1028D0001A2EAA1BBB1BFD010DC0AA1FBB1FEE1F9A
:1028E000FF1FA217B307E407F50720F0A21BB30BE5
:1028F000E40BF50B661F771F881F991F1A9469F761
:1029000060957095809590959B01AC01BD01CF01BC
:102910000895EE0FFF1F881F8BBF0790F691E02DE3
:1029200019945058BB27AA270E94A9140C942D145F
:102930000E941F1438F00E94261420F039F49F3FA3
:1029400019F426F40C941C140EF4E095E7FB0C9497
:102950001614E92F0E943E1458F3BA176207730742
:102960008407950720F079F4A6F50C9460140EF412
:10297000E0950B2EBA2FA02D0B01B90190010C018F
:10298000CA01A0011124FF27591B99F0593F50F4A7
:10299000503E68F11A16F040A22F232F342F4427FF
:1029A000585FF3CF469537952795A795F0405395F7
:1029B000C9F77EF41F16BA0B620B730B840BBAF0C7
:1029C0009150A1F0FF0FBB1F661F771F881FC2F732
:1029D0000EC0BA0F621F731F841F48F48795779546
:1029E0006795B795F7959E3F08F0B0CF9395880F00
:1029F00008F09927EE0F9795879508950E94121574
:102A00000C942D140E94261458F00E941F1440F0BC
:102A100029F45F3F29F00C94161451110C946114A1
:102A20000C941C140E943E1468F39923B1F35523AF
:102A300091F3951B550BBB27AA27621773078407D1
:102A400038F09F5F5F4F220F331F441FAA1FA9F367
:102A500035D00E2E3AF0E0E832D091505040E69555
:102A6000001CCAF72BD0FE2F29D0660F771F881FB6
:102A7000BB1F261737074807AB07B0E809F0BB0BA9
:102A8000802DBF01FF2793585F4F3AF09E3F5105BD
:102A900078F00C9416140C9461145F3FE4F3983EA4
:102AA000D4F3869577956795B795F7959F5FC9F7A6
:102AB000880F911D9695879597F90895E1E0660F27
:102AC000771F881FBB1F621773078407BA0720F0A0
:102AD000621B730B840BBA0BEE1F88F7E095089509
:102AE0000E9477156894B1110C94611408950E94A6
:102AF000461488F09F5798F0B92F9927B751B0F036
:102B0000E1F0660F771F881F991F1AF0BA95C9F771
:102B100014C0B13091F00E946014B1E008950C949B
:102B20006014672F782F8827B85F39F0B93FCCF34E
:102B3000869577956795B395D9F73EF490958095EE
:102B4000709561957F4F8F4F9F4F08950E94851319
:102B500008F48FEF08950E948513880B990B089550
:102B60000F931F93CF93DF938230910510F482E08F
:102B700090E0E0918C04F0918D0430E020E0B0E032
:102B8000A0E0309799F42115310509F44AC0281BBB
:102B9000390B24303105D8F58A819B816115710587
:102BA00089F1FB0193838283FE0111C04081518131
:102BB0000281138148175907E0F04817590799F423
:102BC000109761F012960C93129713961C933296FD
:102BD000CF01DF91CF911F910F91089500938C0445
:102BE00010938D04F4CF2115310551F0421753078E
:102BF00038F0A901DB019A01BD01DF01F801C1CF65
:102C0000EF01F9CF90938D0480938C04CDCFFE011A
:102C1000E20FF31F81939193225031093983288366
:102C2000D7CF20918A0430918B04232B41F420913B
:102C300013023091140230938B0420938A04209164
:102C40001102309112022115310541F42DB73EB722
:102C50004091150250911602241B350BE0918A0415
:102C6000F0918B04E217F307A0F42E1B3F0B2817FB
:102C7000390778F0AC014E5F5F4F2417350748F0F5
:102C80004E0F5F1F50938B0440938A04819391935E
:102C90009FCFF0E0E0E09CCFCF93DF930097E9F087
:102CA000FC01329713821282A0918C04B0918D04A2
:102CB000ED0130E020E01097A1F420813181820FF6
:102CC000931F20918A0430918B042817390709F04B
:102CD00061C0F0938B04E0938A04DF91CF91089553
:102CE000EA01CE17DF07E8F54A815B819E014115B5
:102CF0005105B1F7E901FB83EA8349915991C40F6A
:102D0000D51FEC17FD0761F4808191810296840F35
:102D1000951FE90199838883828193819B838A83AC
:102D2000F0E0E0E012968D919C9113970097B9F531
:102D30002D913C911197CD010296820F931F209106
:102D40008A0430918B042817390739F6309751F5EA
:102D500010928D0410928C04B0938B04A0938A047B
:102D6000BCCFD383C28340815181840F951FC81784
:102D7000D90761F44E5F5F4F88819981480F591FD1
:102D8000518340838A819B819383828321153105FE
:102D900009F0B0CFF0938D04E0938C049ECFFD0139
:102DA000DC01C0CF13821282D7CF4F925F926F9215
:102DB0007F928F929F92AF92BF92CF92DF92EF92CB
:102DC000FF920F931F93CF93DF938C01009799F499
:102DD000CB01DF91CF911F910F91FF90EF90DF908A
:102DE000CF90BF90AF909F908F907F906F905F90AB
:102DF0004F900C94B015FC01E60FF71F9C01225078
:102E00003109E217F30708F4AEC0D901CD91DC9186
:102E10001197C617D70720F1C530D10578F0CE013C
:102E200004978617970750F0C61BD70B2297C193BC
:102E3000D1936D937C93CF010E944C16C801DF9112
:102E4000CF911F910F91FF90EF90DF90CF90BF90A7
:102E5000AF909F908F907F906F905F904F9008956C
:102E60005B01AC1ABD0A4C018C0E9D1EA0918C0416
:102E7000B0918D04512C412CF12CE12C109731F59F
:102E800080918A0490918B048815990509F05CC0A3
:102E90004616570608F058C0809111029091120210
:102EA000009741F48DB79EB74091150250911602DC
:102EB000841B950BE817F90708F055C0F0938B04B5
:102EC000E0938A04F90171836083B8CF8D919C915E
:102ED000119712966C90129713967C901397A815E1
:102EE000B90559F56C0142E0C40ED11CCA14DB04CB
:102EF00020F1AC014A195B09DA011296159780F0AE
:102F00006282738251834083D9016D937C93E11473
:102F1000F10471F0D7011396FC93EE9312978ECFC4
:102F200022968C0F9D1FF90191838083F301EFCFCF
:102F3000F0938D04E0938C0481CF4816590608F471
:102F40002C017D01D3019ACFCB010E94B0157C01E9
:102F5000009749F0AE01B8010E94B617C8010E945F
:102F60004C1687016BCF10E000E068CFFB01DC015D
:102F700002C001900D9241505040D8F70895FB01D6
:102F8000DC0101900D920020E1F70895F894FFCF45
:102F90002B042B042B042B042B042B042B042B04B9
:102FA0000100008E04800000004000140054000066
:102FB0000000007F025202550628024B0238022907
:102FC0000200000000D0043A0467041D059804764E
:102FD000048A0400000000CD063A0455062A046E57
:102FE000616E00696E66006F7666004F4E004F4658
:102FF0004600747275650066616C736500454C45EA
:103000004354524F414C4C0053494E20464C554A74
:103010004F00444542494C004D4544494F004655F8
:10302000455254450043617564616C3A2000204C60
:103030002F6D696E0052656C653A20202000507536
:103040006C736F732F733A2000204C2F6D696E20C4
:10305000202045737461646F3A200020202052655F
:103060006C653A20007D000D0A00444154413A7BD2
:103070002263617564616C223A002C22657374616D
:10308000646F223A2200222C2272656C65223A007B
:00000001FF
